:020000040800F2
:10000000680600206D0100087501000877010008EE
:10001000790100087B0100087D0100080000000054
:100020000000000000000000000000007F01000848
:10003000810100080000000083010008850100081C
:100040008701000887010008870100088701000870
:100050008701000887010008870100088701000860
:100060008701000887010008870100088701000850
:100070008701000887010008870100088701000840
:100080008701000887010008870100088701000830
:100090008701000887010008870100088701000820
:1000A0008701000887010008870100088701000810
:1000B00089080008870100088701000887010008F7
:1000C00087010008870100088701000887010008F0
:1000D00087010008870100088701000887010008E0
:1000E00087010008870100088701000800F002F876
:1000F00000F02CF80AA090E8000C82448344AAF196
:100100000107DA4501D100F021F8AFF2090EBAE893
:100110000F0013F0010F18BFFB1A43F0010318473B
:100120005C0A00006C0A0000002300240025002661
:10013000103A28BF78C1FBD8520728BF30C148BF4A
:100140000B6070471FB51FBD10B510BD00F031F832
:100150001146FFF7F7FF00F0C7FC00F04FF803B4BB
:10016000FFF7F2FF03BC00F057F800000948804792
:1001700009480047FEE7FEE7FEE7FEE7FEE7FEE789
:10018000FEE7FEE7FEE7FEE704480549054A064BA1
:1001900070470000B9070008ED0000086800002063
:1001A000680600206802002068020020704770473F
:1001B0007047754600F02CF8AE4605006946534678
:1001C00020F00700854618B020B5FFF7DDFFBDE839
:1001D00020404FF000064FF000074FF000084FF0AE
:1001E000000BAC46ACE8C009ACE8C009ACE8C009FB
:1001F000ACE8C00921F007018D46704710B50446F0
:10020000AFF300802046BDE81040FFF7A8BF000014
:10021000004870470000002001491820ABBEFEE7EF
:10022000260002007047000081B00090009840F264
:100230006001C2F200010860FFE740F26000C2F214
:100240000000006808B1FFE7F7E701B07047000061
:1002500080B586B08DF817008DF816109DF8170040
:10026000014601911E2800F28A800199DFE801F021
:100270001019222B343D8787878787878787464FCA
:1002800058616A87878787878787878787737D0015
:1002900040F60000C4F2010004900120ADF80E0009
:1002A0006DE040F60000C4F2010004900220ADF8B9
:1002B0000E0064E040F60000C4F201000490042047
:1002C000ADF80E005BE040F60000C4F201000490BF
:1002D0000820ADF80E0052E040F60000C4F2010024
:1002E00004901020ADF80E0049E040F60000C4F282
:1002F000010004902020ADF80E0040E040F60040E0
:10030000C4F2010004900120ADF80E0037E040F681
:100310000040C4F2010004900220ADF80E002EE06F
:1003200040F60040C4F2010004900820ADF80E0031
:1003300025E040F60040C4F2010004901020ADF822
:100340000E001CE040F60040C4F2010004902020A2
:10035000ADF80E0013E041F20000C4F20100049079
:100360004FF40050ADF80E0009E041F20000C4F275
:10037000010004904FF48040ADF80E00FFE7BDF897
:100380000E00ADF8080010208DF80B0002208DF84B
:100390000A00049802A900F013F89DF8160030B97D
:1003A000FFE70498BDF80E1000F0CEF805E00498C1
:1003B000BDF80E1000F0D2F8FFE706B080BD0000D7
:1003C00088B0079006910020059004900390029059
:1003D000019000900698C07800F00F0005900698F4
:1003E000C078C006002806D5FFE7069881780598F2
:1003F00008430590FFE70698007800284BD0FFE7F8
:1004000007980068019000200390FFE703980728F1
:100410003DD8FFE7039901208840029006980088A4
:100420000299084004900498029988422AD1FFE773
:1004300003988000029002990F2088400090009954
:100440000198884301900598029900FA01F10198FA
:10045000084301900698C078282806D1FFE7039941
:1004600001208840079948610BE00698C078482829
:1004700006D1FFE703990120884007990861FFE74B
:10048000FFE7FFE7FFE7039801300390BEE701981D
:1004900007990860FFE706980088B0F5807F50DB79
:1004A000FFE707984068019000200390FFE703985A
:1004B000072842D8FFE7039800F10801012088408F
:1004C00002900698008802990840049004980299C6
:1004D00088422DD1FFE703988000029002990F20F7
:1004E00088400090009901988843019005980299EE
:1004F00000FA01F10198084301900698C078282875
:1005000008D1FFE7039800F108010120884007990E
:100510004861FFE70698C078482808D1FFE70398AC
:1005200000F108010120884007990861FFE7FFE713
:10053000FFE7039801300390B9E7019807994860F5
:10054000FFE708B07047000082B00190ADF80210DC
:10055000BDF802000199486102B0704782B0019075
:10056000ADF80210BDF802000199086102B07047B1
:1005700084B003900020029001900F200090039817
:10058000C078C0B3FFE74EF60C50CEF20000006812
:10059000C043C0F3022002900298C0F10400019011
:1005A00000980299C84000900398407801998840CB
:1005B00002900398807800990140029808430290C5
:1005C0000298000102900298039909784EF20042C5
:1005D000CEF2000288540398027802F01F01012035
:1005E00088404EF20011CEF2000141EAD20121F022
:1005F000030108600FE00398027802F01F01012058
:1006000088404EF28011CEF2000141EAD20121F081
:1006100003010860FFE704B07047000082B001905A
:100620008DF803109DF8030048B1FFE7019A41F2ED
:100630001C01C4F2020108681043086008E0019A36
:1006400041F21C01C4F20201086890430860FFE710
:1006500002B0704782B001908DF803109DF803003E
:1006600048B1FFE7019A41F21801C4F2020108689B
:100670001043086008E0019A41F21801C4F2020137
:10068000086890430860FFE702B0704780B500F04B
:1006900001F880BD84B000200390029041F2000177
:1006A000C4F20201086840F480300860FFE741F2BC
:1006B0000000C4F20200006800F4003002900398C9
:1006C00001300390FFE702990020019039B9FFE75C
:1006D0000398B0F5A06018BF01200190FFE70198D2
:1006E000C0070028E3D1FFE741F20000C4F2020096
:1006F00000688003002803D5FFE70120029002E094
:1007000000200290FFE70298012851D1FFE742F252
:100710000001C4F20201086840F010000860086897
:1007200020F007000860086840F00200086041F20D
:100730000401C4F2020100910868086008680860BA
:10074000086840F480600860086820F47C10086045
:10075000086840F4E810086041F20001C4F20201A8
:10076000086840F080700860FFE741F20000C4F2C2
:10077000020000688001002801D4FFE7F5E741F29C
:100780000401C4F20201086820F003000860086850
:1007900040F002000860FFE741F20400C4F20200EA
:1007A000006800F00C00082801D0FFE7F4E700E043
:1007B000FFE704B07047000080B541F20002C4F2C8
:1007C0000202106840F00100106041F20401C4F21E
:1007D000020108680023CFF6FF0318400860106884
:1007E0004FF6FF73CFF6F66318401060106820F4E0
:1007F00080201060086820F4FE00086041F20801C3
:10080000C4F202014FF41F000860FFF73FFF4EF6ED
:100810000851CEF200014FF00060086080BD00007A
:1008200080B588B0012103910846FFF7F7FE4FF429
:100830006160ADF814001320ADF81800002002909C
:10084000ADF81A00ADF816004FF08040019005A9F0
:1008500000F0A2F80198039A114600F083F801987D
:10086000039900F03BF8029903981C228DF81020A0
:100870008DF811108DF812108DF8130004A8FFF7F1
:1008800077FE08B080BD000080B54FF080400121A8
:1008900000F03AF8A8B1FFE740F26000C2F20000B1
:1008A000006840B1FFE740F26001C2F20001086851
:1008B00001380860FFE74FF08040012100F002F8A6
:1008C000FFE780BD82B00190ADF80210BDF80200D4
:1008D000C0430199088202B07047000082B00190C5
:1008E0008DF803109DF8030030B1FFE701990888E7
:1008F00040F00100088005E00199088820F001001F
:100900000880FFE702B0704783B00290ADF8061090
:1009100000208DF80500ADF80200ADF80000029847
:10092000008ABDF806100840ADF8020002988089E0
:10093000BDF806100840ADF80000BDF8020040B157
:10094000FFE7BDF8000020B1FFE701208DF80500AA
:1009500003E000208DF80500FFE79DF8050003B0D7
:100960007047000082B00190ADF802108DF80120B0
:100970009DF8010038B1FFE7BDF802200199888990
:100980001043888106E0BDF80220019988899043D0
:100990008881FFE702B0704783B002900191002088
:1009A000ADF8020002980088ADF80200029842F605
:1009B0000041C4F20101884225D0FFE7029843F2CA
:1009C0000041C4F2010188421DD0FFE70298B0F156
:1009D000804F18D0FFE7029840F20041C4F20001B6
:1009E000884210D0FFE7029840F60001C4F20001EF
:1009F000884208D0FFE7029840F60041C4F20001A7
:100A000088420ED1FFE7BDF8020020F07000ADF87B
:100A1000020001984188BDF802000843ADF80200C9
:100A2000FFE7029841F20001C4F20001884216D0AB
:100A3000FFE7029841F20041C4F2000188420ED063
:100A4000FFE7BDF8020020F44070ADF80200019805
:100A5000C188BDF802000843ADF80200FFE7BDF809
:100A6000020002990880019880880299888501987F
:100A7000008802990885029842F60041C4F20101FB
:100A8000884220D0FFE7029843F20041C4F20101FE
:100A9000884218D0FFE7029844F20001C4F2010135
:100AA000884210D0FFE7029844F20041C4F20101ED
:100AB000884208D0FFE7029844F60001C4F2010121
:100AC000884205D1FFE70198007A02990886FFE77E
:100AD00002990120888203B07047000080B53C2055
:100AE0000121FFF7B7FD80BD80B588B000200790D9
:100AF000FFF7F4FFFFF794FEFFE7022000900121CB
:100B00000591FFF7A5FB4FF4FA700690FFF78CFBF9
:100B1000009800210391FFF79BFB0698FFF784FBE9
:100B2000059912200190FFF793FB0698FFF77CFBD5
:100B300001980399FFF78CFB0698FFF775FB059961
:100B40001E200290FFF784FB0698FFF76DFB0298CA
:100B50000399FFF77DFB0698FFF766FB03991D20BD
:100B60000490FFF775FB0698FFF75EFB0498059964
:100B7000FFF76EFB0698FFF757FBBEE78C0B0008EC
:0C0B8000000000206806000028010008AA
:04000005080000ED02
:00000001FF
