:020000040800F2
:10000000000700206D010008750100087701000855
:10001000790100087B0100087D0100080000000054
:100020000000000000000000000000007F01000848
:10003000810100080000000083010008850100081C
:100040008701000887010008870100088701000870
:100050008701000887010008870100088701000860
:100060008701000887010008870100088701000850
:100070008701000887010008870100088701000840
:100080008701000887010008870100088701000830
:100090008701000887010008870100088701000820
:1000A0008701000887010008870100088701000810
:1000B0008701000887010008870100088701000800
:1000C00087010008870100088701000887010008F0
:1000D00087010008870100088701000887010008E0
:1000E00087010008870100088701000800F002F876
:1000F00000F02CF80AA090E8000C82448344AAF196
:100100000107DA4501D100F021F8AFF2090EBAE893
:100110000F0013F0010F18BFFB1A43F0010318473B
:10012000B8090000C80900000023002400250026AB
:10013000103A28BF78C1FBD8520728BF30C148BF4A
:100140000B6070471FB51FBD10B510BD00F050F813
:100150001146FFF7F7FF00F075FC00F06EF803B4EE
:10016000FFF7F2FF03BC00F075F800000948804774
:1001700009480047FEE7FEE7FEE7FEE7FEE7FEE789
:10018000FEE7FEE7FEE7FEE704480549054A064BA1
:100190007047000019090008ED0000080001002068
:1001A0000007002000030020000300207047704774
:1001B0007047A0E8004FF0C040F804DB01B5AFF392
:1001C0000080BDE8024001C10020704700F12C080A
:1001D0000C4658F8040DAFF3008058F8040D85461E
:1001E000200008BF012038E9F00018E9004F7047EF
:1001F000754600F02BF8AE4605006946534620F0E0
:100200000700854618B020B5FFF7BEFFBDE82040C7
:100210004FF000064FF000074FF000084FF0000BC2
:10022000AC46ACE8C009ACE8C009ACE8C009ACE831
:10023000C00921F007018D46704710B50446AFF3A1
:1002400000802046BDE81040FFF789BF0048704796
:100250000000002001491820ABBEFEE72600020086
:100260007047000080B588B0079000200690FFE737
:100270000698079988422ADAFFE7022001900121B7
:10028000009100F0D7F800991220029000F0D2F807
:1002900000991E20039000F0CDF847F230500590F1
:1002A00000F074FB01980021049100F0C3F802985B
:1002B000049900F0BFF80398049900F0BBF8059882
:1002C00000F064FBFFE7069801300690D0E740F2AB
:1002D0006000C2F200000121FFF778FF80B58AB00C
:1002E000099002200021079100F0A4F8079912203C
:1002F00000F0A0F807991E2000F09CF807980890DD
:10030000FFE708980999884236DAFFE70220019052
:100310000121039100F08EF847F23050069000F072
:1003200035FB01980021059100F084F8069800F053
:100330002DFB03991220029000F07CF8069800F043
:1003400025FB0298059900F075F8069800F01EFB51
:1003500003991E20049000F06DF8069800F016FB3B
:100360000498059900F066F8069800F00FFBFFE787
:10037000089801300890C4E740F26000C2F2000023
:100380000121FFF723FF000080B586B08DF816002D
:100390009DF816000538014601910D2836D80199BF
:1003A000DFE801F0071019343434343434342234A3
:1003B000342B40F60000C4F2010004902020ADF878
:1003C0000E0023E040F60000C4F20100049040203B
:1003D000ADF80E001AE040F60000C4F201000490EF
:1003E0008020ADF80E0011E040F60040C4F201009C
:1003F00004900220ADF80E0008E040F60040C4F280
:10040000010004902020ADF80E00FFE70498BDF82D
:100410000E1000F08BF920B9FFE700208DF81700CF
:1004200003E001208DF81700FFE79DF8170006B0E4
:1004300080BD000080B586B08DF817008DF81610CD
:100440009DF81700014601911E2800F28A8001994B
:10045000DFE801F01019222B343D878787878787D3
:100460008787464F58616A87878787878787878707
:1004700087737D0040F60000C4F201000490012063
:10048000ADF80E006DE040F60000C4F201000490EB
:100490000220ADF80E0064E040F60000C4F2010056
:1004A00004900420ADF80E005BE040F60000C4F2BA
:1004B000010004900820ADF80E0052E040F6000064
:1004C000C4F2010004901020ADF80E0049E040F69F
:1004D0000000C4F2010004902020ADF80E0040E0BE
:1004E00040F60040C4F2010004900120ADF80E0077
:1004F00037E040F60040C4F2010004900220ADF85D
:100500000E002EE040F60040C4F2010004900820E6
:10051000ADF80E0025E040F60040C4F20100049062
:100520001020ADF80E001CE040F60040C4F20100BF
:1005300004902020ADF80E0013E041F20000C4F258
:10054000010004904FF40050ADF80E0009E041F2B4
:100550000000C4F2010004904FF48040ADF80E009A
:10056000FFE7BDF80E00ADF8080010208DF80B0075
:1005700002208DF80A00049802A900F013F89DF8F3
:10058000160030B9FFE70498BDF80E1000F0E8F847
:1005900005E00498BDF80E1000F0ECF8FFE706B097
:1005A00080BD000088B0079006910020059004905F
:1005B00003900290019000900698C07800F00F0020
:1005C00005900698C078C006002806D5FFE7069873
:1005D0008178059808430590FFE706980078002881
:1005E0004BD0FFE707980068019000200390FFE7D9
:1005F000039807283DD8FFE703990120884002901F
:10060000069800880299084004900498029988424C
:100610002AD1FFE703988000029002990F208840BA
:10062000009000990198884301900598029900FA7A
:1006300001F10198084301900698C078282806D156
:10064000FFE7039901208840079948610BE006986D
:10065000C078482806D1FFE7039901208840079910
:100660000861FFE7FFE7FFE7FFE70398013003902A
:10067000BEE7019807990860FFE706980088B0F583
:10068000807F50DBFFE707984068019000200390CF
:10069000FFE70398072842D8FFE7039800F1080115
:1006A0000120884002900698008802990840049032
:1006B0000498029988422DD1FFE7039880000290A8
:1006C00002990F208840009000990198884301907A
:1006D0000598029900FA01F10198084301900698E3
:1006E000C078282808D1FFE7039800F1080101200D
:1006F000884007994861FFE70698C078482808D1E4
:10070000FFE7039800F1080101208840079908617C
:10071000FFE7FFE7FFE7039801300390B9E701988F
:1007200007994860FFE708B07047000082B0019069
:10073000ADF8021000208DF8010001988068BDF826
:100740000210084204D0FFE701208DF8010003E009
:1007500000208DF80100FFE79DF8010002B070470E
:1007600082B00190ADF80210BDF802000199486115
:1007700002B0704782B00190ADF80210BDF80200DF
:100780000199086102B0704780B582B00220002153
:100790000191FFF74FFE01991220FFF74BFE0199DF
:1007A0001E20FFF747FE40F26000C2F20000012168
:1007B000FFF70CFD82B001908DF803109DF8030047
:1007C00048B1FFE7019A41F21801C4F2020108683A
:1007D0001043086008E0019A41F21801C4F20201D6
:1007E000086890430860FFE702B0704780B500F0EA
:1007F00001F880BD84B000200390029041F2000116
:10080000C4F20201086840F480300860FFE741F25A
:100810000000C4F20200006800F400300290039867
:1008200001300390FFE702990020019039B9FFE7FA
:100830000398B0F5A06018BF01200190FFE7019870
:10084000C0070028E3D1FFE741F20000C4F2020034
:1008500000688003002803D5FFE70120029002E032
:1008600000200290FFE70298012851D1FFE742F2F1
:100870000001C4F20201086840F010000860086836
:1008800020F007000860086840F00200086041F2AC
:100890000401C4F202010091086808600868086059
:1008A000086840F480600860086820F47C100860E4
:1008B000086840F4E810086041F20001C4F2020147
:1008C000086840F080700860FFE741F20000C4F261
:1008D000020000688001002801D4FFE7F5E741F23B
:1008E0000401C4F20201086820F0030008600868EF
:1008F00040F002000860FFE741F20400C4F2020089
:10090000006800F00C00082801D0FFE7F4E700E0E1
:10091000FFE704B07047000080B541F20002C4F266
:100920000202106840F00100106041F20401C4F2BC
:10093000020108680023CFF6FF0318400860106822
:100940004FF6FF73CFF6F66318401060106820F47E
:1009500080201060086820F4FE00086041F2080161
:10096000C4F202014FF41F000860FFF73FFF4EF68C
:100970000851CEF200014FF00060086080BD000019
:1009800080B51C200121FFF715FF80BD80B582B026
:10099000019000200090FFE70098019988423DD225
:1009A000FFE70520FFF7F0FC01280CD1FFE7FFE788
:1009B0000520FFF7E9FC012801D1FFE7F8E7052052
:1009C000FFF750FCFFE70620FFF7DEFC01280CD103
:1009D000FFE7FFE70620FFF7D7FC012801D1FFE77B
:1009E000F8E70520FFF77AFCFFE70720FFF7CCFCCC
:1009F00001280BD1FFE7FFE70720FFF7C5FC01281F
:100A000001D1FFE7F8E7FFF7BFFEFFE70A2000F09C
:100A100007F8FFE7009801300090BDE702B080BD05
:100A200082B0019000200090FFE700980199884271
:100A300005D2FFE7FFE7009801300090F5E702B02C
:100A40007047000080B582B000200190FFF798FF4A
:100A5000FFE700F001F8FCE780B582B040F26000EB
:100A6000C2F20000FFF7A5FB01900520FFF78CFC08
:100A700001280CD1FFE7FFE70520FFF785FC0128DF
:100A800001D1FFE7F8E70520FFF7ECFBFFE70620C1
:100A9000FFF77AFC01280CD1FFE7FFE70620FFF7FC
:100AA00073FC012801D1FFE7F8E70520FFF716FCEA
:100AB000FFE70720FFF768FC01280BD1FFE7FFE7FE
:100AC0000720FFF761FC012801D1FFE7F8E7FFF7F6
:100AD0005BFEFFE702B080BDE80A000800000020CE
:080AE0000007000028010008D6
:04000005080000ED02
:00000001FF
