:020000040800F2
:10000000080700206D01000875010008770100084D
:10001000790100087B0100087D0100080000000054
:100020000000000000000000000000007F01000848
:10003000810100080000000083010008850100081C
:100040008701000887010008870100088701000870
:100050008701000887010008870100088701000860
:100060008701000887010008870100088701000850
:100070008701000887010008870100088701000840
:100080008701000887010008870100088701000830
:100090008701000887010008870100088701000820
:1000A0008701000887010008870100088701000810
:1000B000F10A00088701000887010008870100088D
:1000C00087010008870100088701000887010008F0
:1000D00087010008870100088701000887010008E0
:1000E00087010008870100088701000800F002F876
:1000F00000F02CF80AA090E8000C82448344AAF196
:100100000107DA4501D100F021F8AFF2090EBAE893
:100110000F0013F0010F18BFFB1A43F0010318473B
:100120005C0D00006C0D000000230024002500265B
:10013000103A28BF78C1FBD8520728BF30C148BF4A
:100140000B6070471FB51FBD10B510BD00F050F813
:100150001146FFF7F7FF00F045FE00F06EF803B41C
:10016000FFF7F2FF03BC00F075F800000948804774
:1001700009480047FEE7FEE7FEE7FEE7FEE7FEE789
:10018000FEE7FEE7FEE7FEE704480549054A064BA1
:1001900070470000210A0008ED0000080801002057
:1001A000080700200803002008030020704770475C
:1001B0007047A0E8004FF0C040F804DB01B5AFF392
:1001C0000080BDE8024001C10020704700F12C080A
:1001D0000C4658F8040DAFF3008058F8040D85461E
:1001E000200008BF012038E9F00018E9004F7047EF
:1001F000754600F02BF8AE4605006946534620F0E0
:100200000700854618B020B5FFF7BEFFBDE82040C7
:100210004FF000064FF000074FF000084FF0000BC2
:10022000AC46ACE8C009ACE8C009ACE8C009ACE831
:10023000C00921F007018D46704710B50446AFF3A1
:1002400000802046BDE81040FFF789BF0048704796
:100250000000002001491820ABBEFEE72600020086
:100260007047000080B588B0079000200690FFE737
:1002700006980799884229DAFFE7022001900121B8
:10028000009100F0E9F800991220029000F0E4F8E3
:1002900000991E20039000F0DFF83220059000F056
:1002A00057FD01980021049100F0D6F802980499B6
:1002B00000F0D2F80398049900F0CEF8059800F009
:1002C00047FDFFE7069801300690D1E740F2600055
:1002D000C2F200000121FFF779FF000080B58AB06B
:1002E000099002200021079100F0B6F8079912202A
:1002F00000F0B2F807991E2000F0AEF807980890B9
:10030000FFE708980999884235DAFFE70220019053
:100310000121039100F0A0F83220069000F018FDB2
:1003200001980021059100F097F8069800F010FD63
:1003300003991220029000F08FF8069800F008FD53
:100340000298059900F088F8069800F001FD0399DD
:100350001E20049000F080F8069800F0F9FC049844
:10036000059900F079F8069800F0F2FCFFE708988C
:1003700001300890C5E740F26000C2F200000121A0
:10038000FFF724FF81B00090009840F20011C2F204
:1003900000010860FFE740F20010C2F200000068B0
:1003A00008B1FFE7F7E701B07047000080B586B0FD
:1003B0008DF816009DF816000538014601910D28AC
:1003C00036D80199DFE801F0071019343434343499
:1003D00034342234342B40F60000C4F2010004907F
:1003E0002020ADF80E0023E040F60000C4F201002A
:1003F00004904020ADF80E001AE040F60000C4F270
:10040000010004908020ADF80E0011E040F600409D
:10041000C4F2010004900220ADF80E0008E040F69E
:100420000040C4F2010004902020ADF80E00FFE768
:100430000498BDF80E1000F08BF920B9FFE70020FA
:100440008DF8170003E001208DF81700FFE79DF8F5
:10045000170006B080BD000080B586B08DF817008B
:100460008DF816109DF81700014601911E2800F224
:100470008A800199DFE801F01019222B343D87872B
:10048000878787878787464F58616A8787878787E7
:100490008787878787737D0040F60000C4F20100DC
:1004A00004900120ADF80E006DE040F60000C4F2AB
:1004B000010004900220ADF80E0064E040F6000058
:1004C000C4F2010004900420ADF80E005BE040F699
:1004D0000000C4F2010004900820ADF80E0052E0C4
:1004E00040F60000C4F2010004901020ADF80E00A8
:1004F00049E040F60000C4F2010004902020ADF86D
:100500000E0040E040F60040C4F2010004900120DB
:10051000ADF80E0037E040F60040C4F20100049050
:100520000220ADF80E002EE040F60040C4F20100BB
:1005300004900820ADF80E0025E040F60040C4F21B
:10054000010004901020ADF80E001CE040F60040C1
:10055000C4F2010004902020ADF80E0013E041F237
:100560000000C4F2010004904FF40050ADF80E00FA
:1005700009E041F20000C4F2010004904FF4804011
:10058000ADF80E00FFE7BDF80E00ADF80800102032
:100590008DF80B0002208DF80A00049802A900F0E3
:1005A00013F89DF8160030B9FFE70498BDF80E1057
:1005B00000F0E8F805E00498BDF80E1000F0ECF843
:1005C000FFE706B080BD000088B0079006910020CC
:1005D0000590049003900290019000900698C078D6
:1005E00000F00F0005900698C078C006002806D5D8
:1005F000FFE706988178059808430590FFE706987D
:10060000007800284BD0FFE7079800680190002091
:100610000390FFE7039807283DD8FFE703990120DF
:100620008840029006980088029908400490049837
:10063000029988422AD1FFE703988000029002992C
:100640000F208840009000990198884301900598F8
:10065000029900FA01F10198084301900698C078C8
:10066000282806D1FFE703990120884007994861AF
:100670000BE00698C078482806D1FFE703990120CF
:10068000884007990861FFE7FFE7FFE7FFE7039866
:1006900001300390BEE7019807990860FFE70698CC
:1006A0000088B0F5807F50DBFFE707984068019035
:1006B00000200390FFE70398072842D8FFE703983C
:1006C00000F10801012088400290069800880299F4
:1006D000084004900498029988422DD1FFE70398BE
:1006E0008000029002990F208840009000990198A4
:1006F000884301900598029900FA01F10198084396
:1007000001900698C078282808D1FFE7039800F1E7
:1007100008010120884007994861FFE70698C078E2
:10072000482808D1FFE7039800F10801012088401C
:1007300007990861FFE7FFE7FFE70398013003909F
:10074000B9E7019807994860FFE708B070470000D3
:1007500082B00190ADF8021000208DF801000198E0
:100760008068BDF80210084204D0FFE701208DF830
:10077000010003E000208DF80100FFE79DF8010073
:1007800002B0704782B00190ADF80210BDF80200CF
:100790000199486102B0704782B00190ADF8021033
:1007A000BDF802000199086102B0704784B003905F
:1007B0000020029001900F2000900398C078C0B3F1
:1007C000FFE74EF60C50CEF200000068C043C0F3C5
:1007D000022002900298C0F1040001900098029952
:1007E000C84000900398407801998840029003988F
:1007F0008078009901400298084302900298000115
:1008000002900298039909784EF20042CEF200025B
:1008100088540398027802F01F01012088404EF2AC
:100820000011CEF2000141EAD20121F0030108607B
:100830000FE00398027802F01F01012088404EF279
:100840008011CEF2000141EAD20121F003010860DB
:10085000FFE704B07047000080B582B0022000219D
:100860000191FFF7F9FD01991220FFF7F5FD0199BC
:100870001E20FFF7F1FD40F26000C2F200000121EE
:10088000FFF7A4FC82B001908DF803109DF80300DF
:1008900048B1FFE7019A41F21C01C4F20201086865
:1008A0001043086008E0019A41F21C01C4F2020101
:1008B000086890430860FFE702B0704782B001907B
:1008C0008DF803109DF8030048B1FFE7019A41F24B
:1008D0001801C4F2020108681043086008E0019A98
:1008E00041F21801C4F20201086890430860FFE772
:1008F00002B0704780B500F001F880BD84B00020E0
:100900000390029041F20001C4F20201086840F431
:1009100080300860FFE741F20000C4F20200006886
:1009200000F400300290039801300390FFE7029931
:100930000020019039B9FFE70398B0F5A06018BF17
:1009400001200190FFE70198C0070028E3D1FFE7ED
:1009500041F20000C4F2020000688003002803D5C1
:10096000FFE70120029002E000200290FFE70298DA
:10097000012851D1FFE742F20001C4F202010868E8
:1009800040F010000860086820F007000860086860
:1009900040F00200086041F20401C4F2020100913B
:1009A0000868086008680860086840F480600860AB
:1009B000086820F47C100860086840F4E8100860BB
:1009C00041F20001C4F20201086840F08070086042
:1009D000FFE741F20000C4F2020000688001002835
:1009E00001D4FFE7F5E741F20401C4F2020108680F
:1009F00020F003000860086840F002000860FFE78C
:100A000041F20400C4F20200006800F00C00082863
:100A100001D0FFE7F4E700E0FFE704B07047000013
:100A200080B541F20002C4F20202106840F00100F9
:100A3000106041F20401C4F2020108680023CFF6FD
:100A4000FF031840086010684FF6FF73CFF6F66397
:100A500018401060106820F480201060086820F4AE
:100A6000FE00086041F20801C4F202014FF41F00C9
:100A70000860FFF73FFF4EF60851CEF200014FF03D
:100A80000060086080BD000080B588B0012103913E
:100A90000846FFF7F7FE4FF46160ADF8140013202D
:100AA000ADF8180000200290ADF81A00ADF816005D
:100AB0004FF08040019005A900F0A2F80198039A38
:100AC000114600F083F80198039900F03BF8029971
:100AD00003981C228DF810208DF811108DF812103B
:100AE0008DF8130004A8FFF761FE08B080BD000078
:100AF00080B54FF08040012100F03AF8A8B1FFE73F
:100B000040F20010C2F20000006840B1FFE740F27E
:100B10000011C2F20001086801380860FFE74FF0D9
:100B20008040012100F002F8FFE780BD82B0019013
:100B3000ADF80210BDF80200C0430199088202B06E
:100B40007047000082B001908DF803109DF80300FB
:100B500030B1FFE70199088840F00100088005E006
:100B60000199088820F001000880FFE702B0704773
:100B700083B00290ADF8061000208DF80500ADF8A6
:100B80000200ADF800000298008ABDF80610084087
:100B9000ADF8020002988089BDF806100840ADF853
:100BA0000000BDF8020040B1FFE7BDF8000020B131
:100BB000FFE701208DF8050003E000208DF8050017
:100BC000FFE79DF8050003B07047000082B0019078
:100BD000ADF802108DF801209DF8010038B1FFE753
:100BE000BDF80220019988891043888106E0BDF88C
:100BF00002200199888990438881FFE702B07047FD
:100C000083B0029001910020ADF8020002980088A4
:100C1000ADF80200029842F60041C4F20101884298
:100C200025D0FFE7029843F20041C4F20101884257
:100C30001DD0FFE70298B0F1804F18D0FFE702986F
:100C400040F20041C4F20001884210D0FFE7029850
:100C500040F60001C4F20001884208D0FFE7029884
:100C600040F60041C4F2000188420ED1FFE7BDF812
:100C7000020020F07000ADF8020001984188BDF834
:100C800002000843ADF80200FFE7029841F20001BC
:100C9000C4F20001884216D0FFE7029841F20041F9
:100CA000C4F2000188420ED0FFE7BDF8020020F434
:100CB0004070ADF802000198C188BDF802000843F9
:100CC000ADF80200FFE7BDF8020002990880019824
:100CD0008088029988850198008802990885029881
:100CE00042F60041C4F20101884220D0FFE7029899
:100CF00043F20041C4F20101884218D0FFE7029894
:100D000044F20001C4F20101884210D0FFE70298CA
:100D100044F20041C4F20101884208D0FFE7029882
:100D200044F60001C4F20101884205D1FFE70198B1
:100D3000007A02990886FFE702990120888203B0B1
:100D40007047000080B51C200121FFF7B7FD80BD72
:100D500080B582B0019000200090FFE700980199D3
:100D600088423DD2FFE70520FFF720FB01280CD188
:100D7000FFE7FFE70520FFF719FB012801D1FFE797
:100D8000F8E70520FFF76EFAFFE70620FFF70EFBF6
:100D900001280CD1FFE7FFE70620FFF707FB01283A
:100DA00001D1FFE7F8E70520FFF798FAFFE70720F2
:100DB000FFF7FCFA01280BD1FFE7FFE70720FFF759
:100DC000F5FA012801D1FFE7F8E7FFF745FDFFE756
:100DD0000A20FFF7D7FAFFE7009801300090BDE73F
:100DE00002B080BD80B582B000200190FFF7AAFF5D
:100DF000FFF74AFEFFE700F001F8FCE780B582B09C
:100E000040F26000C2F20000FFF7D3F90190052024
:100E1000FFF7CCFA01280CD1FFE7FFE70520FFF729
:100E2000C5FA012801D1FFE7F8E70520FFF71AFA14
:100E3000FFE70620FFF7BAFA01280CD1FFE7FFE72A
:100E40000620FFF7B3FA012801D1FFE7F8E70520F4
:100E5000FFF744FAFFE70720FFF7A8FA01280BD1B4
:100E6000FFE7FFE70720FFF7A1FA012801D1FFE71D
:100E7000F8E7FFF7F1FCFFE702B080BD8C0E000839
:0C0E800000000020080700002801000806
:04000005080000ED02
:00000001FF
