:020000040800F2
:10000000600600206D0100087501000877010008F6
:10001000790100087B0100087D0100080000000054
:100020000000000000000000000000007F01000848
:10003000810100080000000083010008850100081C
:100040008701000887010008870100088701000870
:100050008701000887010008870100088701000860
:100060008701000887010008870100088701000850
:100070008701000887010008870100088701000840
:100080008701000887010008870100088701000830
:100090008701000887010008870100088701000820
:1000A0008701000887010008870100088701000810
:1000B0008701000887010008870100088701000800
:1000C00087010008870100088701000887010008F0
:1000D00087010008870100088701000887010008E0
:1000E00087010008870100088701000800F002F876
:1000F00000F02CF80AA090E8000C82448344AAF196
:100100000107DA4501D100F021F8AFF2090EBAE893
:100110000F0013F0010F18BFFB1A43F0010318473B
:10012000A4060000B40600000023002400250026D9
:10013000103A28BF78C1FBD8520728BF30C148BF4A
:100140000B6070471FB51FBD10B510BD00F031F832
:100150001146FFF7F7FF00F0F7FA00F04FF803B48D
:10016000FFF7F2FF03BC00F057F800000948804792
:1001700009480047FEE7FEE7FEE7FEE7FEE7FEE789
:10018000FEE7FEE7FEE7FEE704480549054A064BA1
:1001900070470000AD060008ED0000086000002078
:1001A0006006002060020020600200207047704757
:1001B0007047754600F02CF8AE4605006946534678
:1001C00020F00700854618B020B5FFF7DDFFBDE839
:1001D00020404FF000064FF000074FF000084FF0AE
:1001E000000BAC46ACE8C009ACE8C009ACE8C009FB
:1001F000ACE8C00921F007018D46704710B50446F0
:10020000AFF300802046BDE81040FFF7A8BF000014
:10021000004870470000002001491820ABBEFEE7EF
:10022000260002007047000080B586B08DF81700E8
:100230008DF816109DF81700014601911E2800F256
:100240008A800199DFE801F01019222B343D87875D
:10025000878787878787464F58616A878787878719
:100260008787878787737D0040F60000C4F201000E
:1002700004900120ADF80E006DE040F60000C4F2DD
:10028000010004900220ADF80E0064E040F600008A
:10029000C4F2010004900420ADF80E005BE040F6CB
:1002A0000000C4F2010004900820ADF80E0052E0F6
:1002B00040F60000C4F2010004901020ADF80E00DA
:1002C00049E040F60000C4F2010004902020ADF89F
:1002D0000E0040E040F60040C4F20100049001200E
:1002E000ADF80E0037E040F60040C4F20100049083
:1002F0000220ADF80E002EE040F60040C4F20100EE
:1003000004900820ADF80E0025E040F60040C4F24D
:10031000010004901020ADF80E001CE040F60040F3
:10032000C4F2010004902020ADF80E0013E041F269
:100330000000C4F2010004904FF40050ADF80E002C
:1003400009E041F20000C4F2010004904FF4804043
:10035000ADF80E00FFE7BDF80E00ADF80800102064
:100360008DF80B0002208DF80A00049802A900F015
:1003700013F89DF8160030B9FFE70498BDF80E1089
:1003800000F0CEF805E00498BDF80E1000F0D2F8A9
:10039000FFE706B080BD000088B0079006910020FE
:1003A0000590049003900290019000900698C07808
:1003B00000F00F0005900698C078C006002806D50A
:1003C000FFE706988178059808430590FFE70698AF
:1003D000007800284BD0FFE70798006801900020C4
:1003E0000390FFE7039807283DD8FFE70399012012
:1003F000884002900698008802990840049004986A
:10040000029988422AD1FFE703988000029002995E
:100410000F2088400090009901988843019005982A
:10042000029900FA01F10198084301900698C078FA
:10043000282806D1FFE703990120884007994861E1
:100440000BE00698C078482806D1FFE70399012001
:10045000884007990861FFE7FFE7FFE7FFE7039898
:1004600001300390BEE7019807990860FFE70698FE
:100470000088B0F5807F50DBFFE707984068019067
:1004800000200390FFE70398072842D8FFE703986E
:1004900000F1080101208840029006980088029926
:1004A000084004900498029988422DD1FFE70398F0
:1004B0008000029002990F208840009000990198D6
:1004C000884301900598029900FA01F101980843C8
:1004D00001900698C078282808D1FFE7039800F11A
:1004E00008010120884007994861FFE70698C07815
:1004F000482808D1FFE7039800F10801012088404F
:1005000007990861FFE7FFE7FFE7039801300390D1
:10051000B9E7019807994860FFE708B07047000005
:1005200082B00190ADF80210BDF802000199486157
:1005300002B0704782B00190ADF80210BDF8020021
:100540000199086102B0704782B001908DF80310E4
:100550009DF8030048B1FFE7019A41F21801C4F287
:10056000020108681043086008E0019A41F218018E
:10057000C4F20201086890430860FFE702B07047C8
:1005800080B500F001F880BD84B000200390029097
:1005900041F20001C4F20201086840F480300860B2
:1005A000FFE741F20000C4F20200006800F40030EE
:1005B0000290039801300390FFE702990020019018
:1005C00039B9FFE70398B0F5A06018BF012001908A
:1005D000FFE70198C0070028E3D1FFE741F20000E0
:1005E000C4F2020000688003002803D5FFE7012061
:1005F000029002E000200290FFE70298012851D10A
:10060000FFE742F20001C4F20201086840F0100066
:100610000860086820F007000860086840F00200E1
:10062000086041F20401C4F2020100910868086008
:1006300008680860086840F480600860086820F472
:100640007C100860086840F4E810086041F200017E
:10065000C4F20201086840F080700860FFE741F2D0
:100660000000C4F2020000688001002801D4FFE706
:10067000F5E741F20401C4F20201086820F003002A
:100680000860086840F002000860FFE741F20400DB
:10069000C4F20200006800F00C00082801D0FFE757
:1006A000F4E700E0FFE704B07047000080B541F2D6
:1006B0000002C4F20202106840F00100106041F232
:1006C0000401C4F2020108680023CFF6FF031840BA
:1006D000086010684FF6FF73CFF6F663184010609D
:1006E000106820F480201060086820F4FE00086084
:1006F00041F20801C4F202014FF41F000860FFF745
:100700003FFF4EF60851CEF200014FF00060086046
:1007100080BD000080B51C200121FFF715FF80BDC2
:1007200081B000200090FFE7009844F23F21C0F222
:100730000F01884205D8FFE7FFE7009801300090DD
:10074000F2E701B07047000080B588B00020079044
:10075000FFF7E0FFFFE70220019001210691FFF77C
:1007600063FDFFF7DDFF019800210491FFF75CFDB9
:10077000FFF7D6FF069912200290FFF755FDFFF70D
:10078000CFFF02980499FFF74FFDFFF7C9FF0699C5
:100790001E200390FFF748FDFFF7C2FF039804995E
:1007A000FFF742FDFFF7BCFF04991D200590FFF7FE
:1007B0003BFDFFF7B5FF05980699FFF735FDFFF7FD
:1007C000AFFFC8E7D4070008000000206006000063
:0407D00028010008F4
:04000005080000ED02
:00000001FF
